{
  "contractName": "ChickenSubmarine",
  "abi": [
    {
      "constant": true,
      "inputs": [],
      "name": "TX_PROOF_RESULT_PRESENT",
      "outputs": [
        {
          "name": "",
          "type": "uint8"
        }
      ],
      "payable": false,
      "stateMutability": "view",
      "type": "function"
    },
    {
      "constant": true,
      "inputs": [],
      "name": "isInitiated",
      "outputs": [
        {
          "name": "",
          "type": "bool"
        }
      ],
      "payable": false,
      "stateMutability": "view",
      "type": "function"
    },
    {
      "constant": true,
      "inputs": [],
      "name": "startRevealBlock",
      "outputs": [
        {
          "name": "",
          "type": "uint32"
        }
      ],
      "payable": false,
      "stateMutability": "view",
      "type": "function"
    },
    {
      "constant": true,
      "inputs": [
        {
          "name": "",
          "type": "uint256"
        }
      ],
      "name": "revealedSubmarines",
      "outputs": [
        {
          "name": "",
          "type": "bytes32"
        }
      ],
      "payable": false,
      "stateMutability": "view",
      "type": "function"
    },
    {
      "constant": true,
      "inputs": [],
      "name": "commitPeriodLength",
      "outputs": [
        {
          "name": "",
          "type": "uint8"
        }
      ],
      "payable": false,
      "stateMutability": "view",
      "type": "function"
    },
    {
      "constant": true,
      "inputs": [
        {
          "name": "_submarineId",
          "type": "bytes32"
        }
      ],
      "name": "getSubmarineState",
      "outputs": [
        {
          "name": "amountRevealed",
          "type": "uint96"
        },
        {
          "name": "amountUnlocked",
          "type": "uint96"
        },
        {
          "name": "commitTxBlockNumber",
          "type": "uint32"
        },
        {
          "name": "commitTxIndex",
          "type": "uint16"
        }
      ],
      "payable": false,
      "stateMutability": "view",
      "type": "function"
    },
    {
      "constant": true,
      "inputs": [],
      "name": "vee",
      "outputs": [
        {
          "name": "",
          "type": "uint8"
        }
      ],
      "payable": false,
      "stateMutability": "view",
      "type": "function"
    },
    {
      "constant": true,
      "inputs": [],
      "name": "manager",
      "outputs": [
        {
          "name": "",
          "type": "address"
        }
      ],
      "payable": false,
      "stateMutability": "view",
      "type": "function"
    },
    {
      "constant": true,
      "inputs": [],
      "name": "startBlock",
      "outputs": [
        {
          "name": "",
          "type": "uint32"
        }
      ],
      "payable": false,
      "stateMutability": "view",
      "type": "function"
    },
    {
      "constant": true,
      "inputs": [
        {
          "name": "_user",
          "type": "address"
        },
        {
          "name": "_libsubmarine",
          "type": "address"
        },
        {
          "name": "_commitValue",
          "type": "uint256"
        },
        {
          "name": "_embeddedDAppData",
          "type": "bytes"
        },
        {
          "name": "_witness",
          "type": "bytes32"
        },
        {
          "name": "_gasPrice",
          "type": "uint256"
        },
        {
          "name": "_gasLimit",
          "type": "uint256"
        }
      ],
      "name": "getSubmarineId",
      "outputs": [
        {
          "name": "",
          "type": "bytes32"
        }
      ],
      "payable": false,
      "stateMutability": "pure",
      "type": "function"
    },
    {
      "constant": true,
      "inputs": [],
      "name": "kakaBlockNum",
      "outputs": [
        {
          "name": "",
          "type": "bytes32"
        }
      ],
      "payable": false,
      "stateMutability": "view",
      "type": "function"
    },
    {
      "constant": true,
      "inputs": [
        {
          "name": "_submarineId",
          "type": "bytes32"
        }
      ],
      "name": "getSubmarineAmount",
      "outputs": [
        {
          "name": "amount",
          "type": "uint96"
        }
      ],
      "payable": false,
      "stateMutability": "view",
      "type": "function"
    },
    {
      "constant": true,
      "inputs": [
        {
          "name": "",
          "type": "bytes32"
        }
      ],
      "name": "sessions",
      "outputs": [
        {
          "name": "amountRevealed",
          "type": "uint96"
        },
        {
          "name": "amountUnlocked",
          "type": "uint96"
        },
        {
          "name": "commitTxBlockNumber",
          "type": "uint32"
        },
        {
          "name": "commitTxIndex",
          "type": "uint16"
        }
      ],
      "payable": false,
      "stateMutability": "view",
      "type": "function"
    },
    {
      "constant": true,
      "inputs": [],
      "name": "winnerSelected",
      "outputs": [
        {
          "name": "",
          "type": "bool"
        }
      ],
      "payable": false,
      "stateMutability": "view",
      "type": "function"
    },
    {
      "constant": true,
      "inputs": [
        {
          "name": "",
          "type": "bytes32"
        }
      ],
      "name": "players",
      "outputs": [
        {
          "name": "",
          "type": "address"
        }
      ],
      "payable": false,
      "stateMutability": "view",
      "type": "function"
    },
    {
      "constant": true,
      "inputs": [],
      "name": "minBet",
      "outputs": [
        {
          "name": "",
          "type": "uint96"
        }
      ],
      "payable": false,
      "stateMutability": "view",
      "type": "function"
    },
    {
      "constant": true,
      "inputs": [],
      "name": "endRevealBlock",
      "outputs": [
        {
          "name": "",
          "type": "uint32"
        }
      ],
      "payable": false,
      "stateMutability": "view",
      "type": "function"
    },
    {
      "constant": true,
      "inputs": [],
      "name": "endCommitBlockCrypt",
      "outputs": [
        {
          "name": "",
          "type": "bytes32"
        }
      ],
      "payable": false,
      "stateMutability": "view",
      "type": "function"
    },
    {
      "constant": true,
      "inputs": [
        {
          "name": "_submarineId",
          "type": "bytes32"
        }
      ],
      "name": "revealedAndUnlocked",
      "outputs": [
        {
          "name": "success",
          "type": "bool"
        }
      ],
      "payable": false,
      "stateMutability": "view",
      "type": "function"
    },
    {
      "constant": true,
      "inputs": [
        {
          "name": "_submarineId",
          "type": "bytes32"
        }
      ],
      "name": "getSubmarineCommitTxIndex",
      "outputs": [
        {
          "name": "commitTxIndex",
          "type": "uint16"
        }
      ],
      "payable": false,
      "stateMutability": "view",
      "type": "function"
    },
    {
      "constant": true,
      "inputs": [
        {
          "name": "_submarineId",
          "type": "bytes32"
        }
      ],
      "name": "getSubmarineCommitBlockNumber",
      "outputs": [
        {
          "name": "commitTxBlockNumber",
          "type": "uint32"
        }
      ],
      "payable": false,
      "stateMutability": "view",
      "type": "function"
    },
    {
      "constant": true,
      "inputs": [
        {
          "name": "blockHash",
          "type": "bytes32"
        },
        {
          "name": "proofBlob",
          "type": "bytes"
        }
      ],
      "name": "txProof",
      "outputs": [
        {
          "name": "result",
          "type": "uint8"
        },
        {
          "name": "index",
          "type": "uint256"
        },
        {
          "name": "nonce",
          "type": "uint256"
        },
        {
          "name": "gasprice",
          "type": "uint256"
        },
        {
          "name": "startgas",
          "type": "uint256"
        },
        {
          "name": "to",
          "type": "address"
        },
        {
          "name": "value",
          "type": "uint256"
        },
        {
          "name": "data",
          "type": "bytes"
        },
        {
          "name": "v",
          "type": "uint256"
        },
        {
          "name": "r",
          "type": "uint256"
        },
        {
          "name": "s",
          "type": "uint256"
        },
        {
          "name": "isContractCreation",
          "type": "bool"
        }
      ],
      "payable": false,
      "stateMutability": "pure",
      "type": "function"
    },
    {
      "constant": true,
      "inputs": [],
      "name": "winningSubmarineId",
      "outputs": [
        {
          "name": "",
          "type": "bytes32"
        }
      ],
      "payable": false,
      "stateMutability": "view",
      "type": "function"
    },
    {
      "constant": false,
      "inputs": [
        {
          "name": "_submarineId",
          "type": "bytes32"
        }
      ],
      "name": "unlock",
      "outputs": [],
      "payable": true,
      "stateMutability": "payable",
      "type": "function"
    },
    {
      "constant": true,
      "inputs": [],
      "name": "endCommitBlock",
      "outputs": [
        {
          "name": "",
          "type": "uint32"
        }
      ],
      "payable": false,
      "stateMutability": "view",
      "type": "function"
    },
    {
      "constant": false,
      "inputs": [
        {
          "name": "_commitTxBlockNumber",
          "type": "uint32"
        },
        {
          "name": "_embeddedDAppData",
          "type": "bytes"
        },
        {
          "name": "_witness",
          "type": "bytes32"
        },
        {
          "name": "_rlpUnlockTxUnsigned",
          "type": "bytes"
        },
        {
          "name": "_proofBlob",
          "type": "bytes"
        }
      ],
      "name": "reveal",
      "outputs": [],
      "payable": false,
      "stateMutability": "nonpayable",
      "type": "function"
    },
    {
      "constant": true,
      "inputs": [],
      "name": "TX_PROOF_RESULT_ABSENT",
      "outputs": [
        {
          "name": "",
          "type": "uint8"
        }
      ],
      "payable": false,
      "stateMutability": "view",
      "type": "function"
    },
    {
      "inputs": [],
      "payable": false,
      "stateMutability": "nonpayable",
      "type": "constructor"
    },
    {
      "anonymous": false,
      "inputs": [
        {
          "indexed": true,
          "name": "_submarineId",
          "type": "bytes32"
        },
        {
          "indexed": false,
          "name": "_commitValue",
          "type": "uint96"
        }
      ],
      "name": "Unlocked",
      "type": "event"
    },
    {
      "anonymous": false,
      "inputs": [
        {
          "indexed": true,
          "name": "_submarineId",
          "type": "bytes32"
        },
        {
          "indexed": false,
          "name": "_commitValue",
          "type": "uint96"
        },
        {
          "indexed": false,
          "name": "_witness",
          "type": "bytes32"
        },
        {
          "indexed": false,
          "name": "_commitBlockHash",
          "type": "bytes32"
        },
        {
          "indexed": false,
          "name": "_submarineAddr",
          "type": "address"
        }
      ],
      "name": "Revealed",
      "type": "event"
    },
    {
      "constant": false,
      "inputs": [
        {
          "name": "_StartBlock",
          "type": "uint32"
        },
        {
          "name": "_StartRevealBlock",
          "type": "uint32"
        },
        {
          "name": "_MinBet",
          "type": "uint96"
        },
        {
          "name": "_endCommitBlockCrypt",
          "type": "bytes32"
        }
      ],
      "name": "initChickenGame",
      "outputs": [],
      "payable": false,
      "stateMutability": "nonpayable",
      "type": "function"
    },
    {
      "constant": false,
      "inputs": [
        {
          "name": "_secretCommitBlock",
          "type": "uint32"
        }
      ],
      "name": "selectWinner",
      "outputs": [],
      "payable": false,
      "stateMutability": "nonpayable",
      "type": "function"
    },
    {
      "constant": false,
      "inputs": [
        {
          "name": "_submarineId",
          "type": "bytes32"
        }
      ],
      "name": "finalize",
      "outputs": [],
      "payable": false,
      "stateMutability": "nonpayable",
      "type": "function"
    },
    {
      "constant": false,
      "inputs": [
        {
          "name": "blockNum",
          "type": "uint32"
        }
      ],
      "name": "_helper_kaka",
      "outputs": [],
      "payable": false,
      "stateMutability": "nonpayable",
      "type": "function"
    }
  ],
  "bytecode": "0x6080604052601b6000806101000a81548160ff021916908360ff1602179055506005600060016101000a81548160ff021916908360ff16021790555034801561004757600080fd5b506000600260146101000a81548160ff0219169083151502179055506000600660006101000a81548160ff02191690831515021790555033600260006101000a81548173ffffffffffffffffffffffffffffffffffffffff021916908373ffffffffffffffffffffffffffffffffffffffff160217905550614721806100ce6000396000f3fe6080604052600436106101d85760003560e01c806387635e1d11610102578063b9307ff411610095578063ec9b5b3a11610064578063ec9b5b3a14610c6e578063f17eba9414610c9c578063f98b125814610cd3578063fb87f97614610ee3576101d8565b8063b9307ff4146109c3578063d96080ac14610a1a578063df2e7efe14610a75578063e6a1434314610c43576101d8565b80639619367d116100d15780639619367d146108c7578063a04acbf21461090e578063a692a21714610945578063b0e2ca5314610970576101d8565b806387635e1d146107a15780638d382812146107e257806392584d80146108115780639424732e1461084c576101d8565b806337ccdacb1161017a5780634a76baff116101495780634a76baff1461051757806350b720511461065b578063735e00d2146106865780637dbd2832146106f1576101d8565b806337ccdacb146103a857806339679d0d14610458578063481c6a751461048957806348cd4cb1146104e0576101d8565b806322b34b15116101b657806322b34b151461027e578063312edebf146102b5578063317eb2c9146103045780633737a93b14610335576101d8565b806303621a01146101dd5780631c2131251461021e5780631cb599141461024f575b600080fd5b3480156101e957600080fd5b5061021c6004803603602081101561020057600080fd5b81019080803563ffffffff169060200190929190505050610f14565b005b34801561022a57600080fd5b5061023361143f565b604051808260ff1660ff16815260200191505060405180910390f35b34801561025b57600080fd5b50610264611444565b604051808215151515815260200191505060405180910390f35b34801561028a57600080fd5b50610293611457565b604051808263ffffffff1663ffffffff16815260200191505060405180910390f35b3480156102c157600080fd5b506102ee600480360360208110156102d857600080fd5b810190808035906020019092919050505061146d565b6040518082815260200191505060405180910390f35b34801561031057600080fd5b5061031961148e565b604051808260ff1660ff16815260200191505060405180910390f35b34801561034157600080fd5b506103a66004803603608081101561035857600080fd5b81019080803563ffffffff169060200190929190803563ffffffff16906020019092919080356bffffffffffffffffffffffff169060200190929190803590602001909291905050506114a1565b005b3480156103b457600080fd5b506103e1600480360360208110156103cb57600080fd5b810190808035906020019092919050505061178f565b60405180856bffffffffffffffffffffffff166bffffffffffffffffffffffff168152602001846bffffffffffffffffffffffff166bffffffffffffffffffffffff1681526020018363ffffffff1663ffffffff1681526020018261ffff1661ffff16815260200194505050505060405180910390f35b34801561046457600080fd5b5061046d6118a3565b604051808260ff1660ff16815260200191505060405180910390f35b34801561049557600080fd5b5061049e6118b5565b604051808273ffffffffffffffffffffffffffffffffffffffff1673ffffffffffffffffffffffffffffffffffffffff16815260200191505060405180910390f35b3480156104ec57600080fd5b506104f56118db565b604051808263ffffffff1663ffffffff16815260200191505060405180910390f35b34801561052357600080fd5b50610645600480360360e081101561053a57600080fd5b81019080803573ffffffffffffffffffffffffffffffffffffffff169060200190929190803573ffffffffffffffffffffffffffffffffffffffff16906020019092919080359060200190929190803590602001906401000000008111156105a157600080fd5b8201836020820111156105b357600080fd5b803590602001918460018302840111640100000000831117156105d557600080fd5b91908080601f016020809104026020016040519081016040528093929190818152602001838380828437600081840152601f19601f8201169050808301925050505050505091929192908035906020019092919080359060200190929190803590602001909291905050506118f1565b6040518082815260200191505060405180910390f35b34801561066757600080fd5b50610670611a00565b6040518082815260200191505060405180910390f35b34801561069257600080fd5b506106bf600480360360208110156106a957600080fd5b8101908080359060200190929190505050611a06565b60405180826bffffffffffffffffffffffff166bffffffffffffffffffffffff16815260200191505060405180910390f35b3480156106fd57600080fd5b5061072a6004803603602081101561071457600080fd5b8101908080359060200190929190505050611aff565b60405180856bffffffffffffffffffffffff166bffffffffffffffffffffffff168152602001846bffffffffffffffffffffffff166bffffffffffffffffffffffff1681526020018363ffffffff1663ffffffff1681526020018261ffff1661ffff16815260200194505050505060405180910390f35b3480156107ad57600080fd5b506107e0600480360360208110156107c457600080fd5b81019080803563ffffffff169060200190929190505050611b7d565b005b3480156107ee57600080fd5b506107f7611bbc565b604051808215151515815260200191505060405180910390f35b34801561081d57600080fd5b5061084a6004803603602081101561083457600080fd5b8101908080359060200190929190505050611bcf565b005b34801561085857600080fd5b506108856004803603602081101561086f57600080fd5b810190808035906020019092919050505061212c565b604051808273ffffffffffffffffffffffffffffffffffffffff1673ffffffffffffffffffffffffffffffffffffffff16815260200191505060405180910390f35b3480156108d357600080fd5b506108dc61215f565b60405180826bffffffffffffffffffffffff166bffffffffffffffffffffffff16815260200191505060405180910390f35b34801561091a57600080fd5b5061092361217d565b604051808263ffffffff1663ffffffff16815260200191505060405180910390f35b34801561095157600080fd5b5061095a612193565b6040518082815260200191505060405180910390f35b34801561097c57600080fd5b506109a96004803603602081101561099357600080fd5b8101908080359060200190929190505050612199565b604051808215151515815260200191505060405180910390f35b3480156109cf57600080fd5b506109fc600480360360208110156109e657600080fd5b81019080803590602001909291905050506122f3565b604051808261ffff1661ffff16815260200191505060405180910390f35b348015610a2657600080fd5b50610a5360048036036020811015610a3d57600080fd5b81019080803590602001909291905050506123ec565b604051808263ffffffff1663ffffffff16815260200191505060405180910390f35b348015610a8157600080fd5b50610b4560048036036040811015610a9857600080fd5b810190808035906020019092919080359060200190640100000000811115610abf57600080fd5b820183602082011115610ad157600080fd5b80359060200191846001830284011164010000000083111715610af357600080fd5b91908080601f016020809104026020016040519081016040528093929190818152602001838380828437600081840152601f19601f8201169050808301925050505050505091929192905050506124e5565b604051808d60ff1660ff1681526020018c81526020018b81526020018a81526020018981526020018873ffffffffffffffffffffffffffffffffffffffff1673ffffffffffffffffffffffffffffffffffffffff1681526020018781526020018060200186815260200185815260200184815260200183151515158152602001828103825287818151815260200191508051906020019080838360005b83811015610bfd578082015181840152602081019050610be2565b50505050905090810190601f168015610c2a5780820380516001836020036101000a031916815260200191505b509d505050505050505050505050505060405180910390f35b348015610c4f57600080fd5b50610c5861256f565b6040518082815260200191505060405180910390f35b610c9a60048036036020811015610c8457600080fd5b8101908080359060200190929190505050612575565b005b348015610ca857600080fd5b50610cb16126a5565b604051808263ffffffff1663ffffffff16815260200191505060405180910390f35b348015610cdf57600080fd5b50610ee1600480360360a0811015610cf657600080fd5b81019080803563ffffffff16906020019092919080359060200190640100000000811115610d2357600080fd5b820183602082011115610d3557600080fd5b80359060200191846001830284011164010000000083111715610d5757600080fd5b91908080601f016020809104026020016040519081016040528093929190818152602001838380828437600081840152601f19601f8201169050808301925050505050505091929192908035906020019092919080359060200190640100000000811115610dc457600080fd5b820183602082011115610dd657600080fd5b80359060200191846001830284011164010000000083111715610df857600080fd5b91908080601f016020809104026020016040519081016040528093929190818152602001838380828437600081840152601f19601f82011690508083019250505050505050919291929080359060200190640100000000811115610e5b57600080fd5b820183602082011115610e6d57600080fd5b80359060200191846001830284011164010000000083111715610e8f57600080fd5b91908080601f016020809104026020016040519081016040528093929190818152602001838380828437600081840152601f19601f8201169050808301925050505050505091929192905050506126bb565b005b348015610eef57600080fd5b50610ef8612d2c565b604051808260ff1660ff16815260200191505060405180910390f35b600260009054906101000a900473ffffffffffffffffffffffffffffffffffffffff1673ffffffffffffffffffffffffffffffffffffffff163373ffffffffffffffffffffffffffffffffffffffff1614610fba576040517f08c379a00000000000000000000000000000000000000000000000000000000081526004018080602001828103825260248152602001806144096024913960400191505060405180910390fd5b600860049054906101000a900463ffffffff1663ffffffff16431161102a576040517f08c379a000000000000000000000000000000000000000000000000000000000815260040180806020018281038252603a815260200180614623603a913960400191505060405180910390fd5b60001515600660009054906101000a900460ff161515146110b3576040517f08c379a00000000000000000000000000000000000000000000000000000000081526004018080602001828103825260208152602001807f436869636b656e202d2077696e6e65722077617320696e697469616c697a656481525060200191505060405180910390fd5b60075481604051602001808263ffffffff1663ffffffff1660e01b81526004019150506040516020818303038152906040528051906020012014611142576040517f08c379a000000000000000000000000000000000000000000000000000000000815260040180806020018281038252602e81526020018061447b602e913960400191505060405180910390fd5b80600660116101000a81548163ffffffff021916908363ffffffff1602179055506006600d9054906101000a900463ffffffff1663ffffffff16600660119054906101000a900463ffffffff1663ffffffff161115806111d25750600860009054906101000a900463ffffffff1663ffffffff16600660119054906101000a900463ffffffff1663ffffffff1610155b156112b55760008090505b6004805490508110156112b3576000600482815481106111f957fe5b9060005260206000200154905061120f81612199565b156112a5576003600082815260200190815260200160002060009054906101000a900473ffffffffffffffffffffffffffffffffffffffff1673ffffffffffffffffffffffffffffffffffffffff166108fc61126a83611a06565b6bffffffffffffffffffffffff169081150290604051600060405180830381858888f193505050501580156112a3573d6000803e3d6000fd5b505b5080806001019150506111dd565b505b60006006600d9054906101000a900463ffffffff16905060008090505b60048054905081101561141f576000611301600483815481106112f157fe5b90600052602060002001546123ec565b90508063ffffffff166006600d9054906101000a900463ffffffff1663ffffffff161115801561134f5750600660119054906101000a900463ffffffff1663ffffffff168163ffffffff1611155b15611411578263ffffffff168163ffffffff16111561138e576004828154811061137557fe5b9060005260206000200154600581905550809250611410565b8263ffffffff168163ffffffff16141561140f576113ad600554611a06565b6bffffffffffffffffffffffff166113db600484815481106113cb57fe5b9060005260206000200154611a06565b6bffffffffffffffffffffffff16111561140e57600482815481106113fc57fe5b90600052602060002001546005819055505b5b5b5b5080806001019150506112d2565b506001600660006101000a81548160ff0219169083151502179055505050565b600181565b600260149054906101000a900460ff1681565b600860009054906101000a900463ffffffff1681565b6004818154811061147a57fe5b906000526020600020016000915090505481565b600060019054906101000a900460ff1681565b60001515600260149054906101000a900460ff1615151461150d576040517f08c379a000000000000000000000000000000000000000000000000000000000815260040180806020018281038252602d81526020018061444e602d913960400191505060405180910390fd5b3373ffffffffffffffffffffffffffffffffffffffff16600260009054906101000a900473ffffffffffffffffffffffffffffffffffffffff1673ffffffffffffffffffffffffffffffffffffffff16146115b3576040517f08c379a000000000000000000000000000000000000000000000000000000000815260040180806020018281038252602d815260200180614565602d913960400191505060405180910390fd5b8363ffffffff164310611611576040517f08c379a00000000000000000000000000000000000000000000000000000000081526004018080602001828103825260318152602001806145016031913960400191505060405180910390fd5b8263ffffffff168463ffffffff1610611675576040517f08c379a00000000000000000000000000000000000000000000000000000000081526004018080602001828103825260358152602001806143d46035913960400191505060405180910390fd5b60006bffffffffffffffffffffffff16826bffffffffffffffffffffffff1614156116eb576040517f08c379a00000000000000000000000000000000000000000000000000000000081526004018080602001828103825260228152602001806146016022913960400191505060405180910390fd5b836006600d6101000a81548163ffffffff021916908363ffffffff16021790555082600860006101000a81548163ffffffff021916908363ffffffff160217905550601e8301600860046101000a81548163ffffffff021916908363ffffffff1602179055508060078190555081600660016101000a8154816bffffffffffffffffffffffff02191690836bffffffffffffffffffffffff16021790555050505050565b60008060008061179d614251565b600160008781526020019081526020016000206040518060800160405290816000820160009054906101000a90046bffffffffffffffffffffffff166bffffffffffffffffffffffff166bffffffffffffffffffffffff16815260200160008201600c9054906101000a90046bffffffffffffffffffffffff166bffffffffffffffffffffffff166bffffffffffffffffffffffff1681526020016000820160189054906101000a900463ffffffff1663ffffffff1663ffffffff16815260200160008201601c9054906101000a900461ffff1661ffff1661ffff1681525050905080600001518160200151826040015183606001519450945094509450509193509193565b6000809054906101000a900460ff1681565b600260009054906101000a900473ffffffffffffffffffffffffffffffffffffffff1681565b6006600d9054906101000a900463ffffffff1681565b600087878787878787604051602001808873ffffffffffffffffffffffffffffffffffffffff1673ffffffffffffffffffffffffffffffffffffffff1660601b81526014018773ffffffffffffffffffffffffffffffffffffffff1673ffffffffffffffffffffffffffffffffffffffff1660601b815260140186815260200185805190602001908083835b602083106119a0578051825260208201915060208101905060208303925061197d565b6001836020036101000a038019825116818451168082178552505050505050905001848152602001838152602001828152602001975050505050505050604051602081830303815290604052805190602001209050979650505050505050565b60095481565b6000611a10614251565b600160008481526020019081526020016000206040518060800160405290816000820160009054906101000a90046bffffffffffffffffffffffff166bffffffffffffffffffffffff166bffffffffffffffffffffffff16815260200160008201600c9054906101000a90046bffffffffffffffffffffffff166bffffffffffffffffffffffff166bffffffffffffffffffffffff1681526020016000820160189054906101000a900463ffffffff1663ffffffff1663ffffffff16815260200160008201601c9054906101000a900461ffff1661ffff1661ffff168152505090508060000151915050919050565b60016020528060005260406000206000915090508060000160009054906101000a90046bffffffffffffffffffffffff169080600001600c9054906101000a90046bffffffffffffffffffffffff16908060000160189054906101000a900463ffffffff169080600001601c9054906101000a900461ffff16905084565b80604051602001808263ffffffff1663ffffffff1660e01b81526004019150506040516020818303038152906040528051906020012060098190555050565b600660009054906101000a900460ff1681565b600860049054906101000a900463ffffffff1663ffffffff164311611c3f576040517f08c379a00000000000000000000000000000000000000000000000000000000081526004018080602001828103825260398152602001806146bd6039913960400191505060405180910390fd5b6000801b811415611cb8576040517f08c379a000000000000000000000000000000000000000000000000000000000815260040180806020018281038252601a8152602001807f436869636b656e202d207375626d6172696e654964206973203000000000000081525060200191505060405180910390fd5b60011515600660009054906101000a900460ff16151514611d24576040517f08c379a000000000000000000000000000000000000000000000000000000000815260040180806020018281038252602181526020018061442d6021913960400191505060405180910390fd5b611d2d81612199565b611d82576040517f08c379a000000000000000000000000000000000000000000000000000000000815260040180806020018281038252602381526020018061469a6023913960400191505060405180910390fd5b3373ffffffffffffffffffffffffffffffffffffffff166003600083815260200190815260200160002060009054906101000a900473ffffffffffffffffffffffffffffffffffffffff1673ffffffffffffffffffffffffffffffffffffffff1614611e39576040517f08c379a000000000000000000000000000000000000000000000000000000000815260040180806020018281038252602a8152602001806144a9602a913960400191505060405180910390fd5b6000801b6005541480611e4d575060055481145b15611f69573373ffffffffffffffffffffffffffffffffffffffff166108fc6064605f611e7985611a06565b026bffffffffffffffffffffffff1681611e8f57fe5b046bffffffffffffffffffffffff169081150290604051600060405180830381858888f19350505050158015611ec9573d6000803e3d6000fd5b50600260009054906101000a900473ffffffffffffffffffffffffffffffffffffffff1673ffffffffffffffffffffffffffffffffffffffff166108fc60646005611f1385611a06565b026bffffffffffffffffffffffff1681611f2957fe5b046bffffffffffffffffffffffff169081150290604051600060405180830381858888f19350505050158015611f63573d6000803e3d6000fd5b50612129565b60036000600554815260200190815260200160002060009054906101000a900473ffffffffffffffffffffffffffffffffffffffff1673ffffffffffffffffffffffffffffffffffffffff166108fc600a6005611fc585611a06565b026bffffffffffffffffffffffff1681611fdb57fe5b046bffffffffffffffffffffffff169081150290604051600060405180830381858888f19350505050158015612015573d6000803e3d6000fd5b503373ffffffffffffffffffffffffffffffffffffffff166108fc6064602d61203d85611a06565b026bffffffffffffffffffffffff168161205357fe5b046bffffffffffffffffffffffff169081150290604051600060405180830381858888f1935050505015801561208d573d6000803e3d6000fd5b50600260009054906101000a900473ffffffffffffffffffffffffffffffffffffffff1673ffffffffffffffffffffffffffffffffffffffff166108fc606460056120d785611a06565b026bffffffffffffffffffffffff16816120ed57fe5b046bffffffffffffffffffffffff169081150290604051600060405180830381858888f19350505050158015612127573d6000803e3d6000fd5b505b50565b60036020528060005260406000206000915054906101000a900473ffffffffffffffffffffffffffffffffffffffff1681565b600660019054906101000a90046bffffffffffffffffffffffff1681565b600860049054906101000a900463ffffffff1681565b60075481565b60006121a3614251565b600160008481526020019081526020016000206040518060800160405290816000820160009054906101000a90046bffffffffffffffffffffffff166bffffffffffffffffffffffff166bffffffffffffffffffffffff16815260200160008201600c9054906101000a90046bffffffffffffffffffffffff166bffffffffffffffffffffffff166bffffffffffffffffffffffff1681526020016000820160189054906101000a900463ffffffff1663ffffffff1663ffffffff16815260200160008201601c9054906101000a900461ffff1661ffff1661ffff16815250509050600081602001516bffffffffffffffffffffffff16141580156122bb5750600081600001516bffffffffffffffffffffffff1614155b80156122eb575080600001516bffffffffffffffffffffffff1681602001516bffffffffffffffffffffffff1610155b915050919050565b60006122fd614251565b600160008481526020019081526020016000206040518060800160405290816000820160009054906101000a90046bffffffffffffffffffffffff166bffffffffffffffffffffffff166bffffffffffffffffffffffff16815260200160008201600c9054906101000a90046bffffffffffffffffffffffff166bffffffffffffffffffffffff166bffffffffffffffffffffffff1681526020016000820160189054906101000a900463ffffffff1663ffffffff1663ffffffff16815260200160008201601c9054906101000a900461ffff1661ffff1661ffff168152505090508060600151915050919050565b60006123f6614251565b600160008481526020019081526020016000206040518060800160405290816000820160009054906101000a90046bffffffffffffffffffffffff166bffffffffffffffffffffffff166bffffffffffffffffffffffff16815260200160008201600c9054906101000a90046bffffffffffffffffffffffff166bffffffffffffffffffffffff166bffffffffffffffffffffffff1681526020016000820160189054906101000a900463ffffffff1663ffffffff1663ffffffff16815260200160008201601c9054906101000a900461ffff1661ffff1661ffff168152505090508060400151915050919050565b6000806000806000806000606060008060008061250061429f565b61250a8f8f612d31565b809350819e50829f5050505080600001519a50806020015199508060400151985080606001519750806080015196508060a0015195508060c0015194508060e00151935080610100015192508061012001519150509295989b509295989b509295989b565b60055481565b3460016000838152602001908152602001600020600001600c9054906101000a90046bffffffffffffffffffffffff166bffffffffffffffffffffffff1610612609576040517f08c379a000000000000000000000000000000000000000000000000000000000815260040180806020018281038252603d81526020018061465d603d913960400191505060405180910390fd5b3460016000838152602001908152602001600020600001600c6101000a8154816bffffffffffffffffffffffff02191690836bffffffffffffffffffffffff160217905550807f8ac3fcd92337bc998bc589d89eec9126a8a1558aa95da562ef623872b0573af03460405180826bffffffffffffffffffffffff166bffffffffffffffffffffffff16815260200191505060405180910390a250565b600660119054906101000a900463ffffffff1681565b60008563ffffffff164090506000801b811415612723576040517f08c379a00000000000000000000000000000000000000000000000000000000081526004018080602001828103825260408152602001806145926040913960400191505060405180910390fd5b600060019054906101000a900460ff1660ff1661274f8763ffffffff1643612e3290919063ffffffff16565b116127a5576040517f08c379a00000000000000000000000000000000000000000000000000000000081526004018080602001828103825260338152602001806145326033913960400191505060405180910390fd5b6127ad61430a565b6127b684612ebb565b905060008480519060200120905060008260000151146127d557600080fd5b3073ffffffffffffffffffffffffffffffffffffffff16826060015173ffffffffffffffffffffffffffffffffffffffff161461281157600080fd5b600061282e333085608001518b8b886020015189604001516118f1565b905060006001600083815260200190815260200160002060000160189054906101000a900463ffffffff1663ffffffff16146128d2576040517f08c379a000000000000000000000000000000000000000000000000000000000815260040180806020018281038252601a8152602001807f54686520747820697320616c72656164792072657665616c656400000000000081525060200191505060405180910390fd5b6128da61429f565b6000806128e787896124e5565b9091929394959697509091929394959650849450909192509091509050896000018a6060018b6080018c60a0018d610120018515151515815250859052858152508573ffffffffffffffffffffffffffffffffffffffff1673ffffffffffffffffffffffffffffffffffffffff168152508581525085975086985050505050505050600160ff168260ff16146129e5576040517f08c379a00000000000000000000000000000000000000000000000000000000081526004018080602001828103825260148152602001807f5468652070726f6f6620697320696e76616c696400000000000000000000000081525060200191505060405180910390fd5b8560800151836080015110156129fa57600080fd5b60001515836101200151151514612a1057600080fd5b60008360a001515114612a2257600080fd5b60006001866000809054906101000a900460ff1687600160f81b60405160200180838152602001827effffffffffffffffffffffffffffffffffffffffffffffffffffffffffffff19167effffffffffffffffffffffffffffffffffffffffffffffffffffffffffffff19168152600101925050506040516020818303038152906040528051906020012088600060f81b60405160200180838152602001827effffffffffffffffffffffffffffffffffffffffffffffffffffffffffffff19167effffffffffffffffffffffffffffffffffffffffffffffffffffffffffffff19168152600101925050506040516020818303038152906040528051906020012060405160008152602001604052604051808581526020018460ff1660ff1681526020018381526020018281526020019450505050506020604051602081039080840390855afa158015612b7b573d6000803e3d6000fd5b5050506020604051035190508073ffffffffffffffffffffffffffffffffffffffff16846060015173ffffffffffffffffffffffffffffffffffffffff1614612bc357600080fd5b86608001516001600087815260200190815260200160002060000160006101000a8154816bffffffffffffffffffffffff02191690836bffffffffffffffffffffffff1602179055508c6001600087815260200190815260200160002060000160186101000a81548163ffffffff021916908363ffffffff1602179055508160016000878152602001908152602001600020600001601c6101000a81548161ffff021916908361ffff160217905550847f9fb55fc4888e5d539ce15952412dd9a48491d2e463ba56290d690460ff09a1dd88608001518d8b8560405180856bffffffffffffffffffffffff166bffffffffffffffffffffffff1681526020018481526020018381526020018273ffffffffffffffffffffffffffffffffffffffff1673ffffffffffffffffffffffffffffffffffffffff16815260200194505050505060405180910390a2612d1d858d896080015161301d565b50505050505050505050505050565b600281565b600080612d3c61429f565b6000925060009150612d4c61435f565b612d55856131b6565b90506001816000015114612d6857600080fd5b8581602001516040518082805190602001908083835b60208310612da15780518252602082019150602081019050602083039250612d7e565b6001836020036101000a038019825116818451168082178552505050505050905001915050604051809103902014612dd857600080fd5b6060612df182604001518360a001518460c001516132e5565b9050600081511415612e125760028260800151849450945094505050612e2b565b60018260800151612e2283613764565b94509450945050505b9250925092565b600082821115612eaa576040517f08c379a000000000000000000000000000000000000000000000000000000000815260040180806020018281038252601e8152602001807f536166654d6174683a207375627472616374696f6e206f766572666c6f77000081525060200191505060405180910390fd5b600082840390508091505092915050565b612ec361430a565b6060612ed6612ed18461391f565b61394d565b90506006815114612ee657600080fd5b600080612f0683600381518110612ef957fe5b6020026020010151613a24565b15612f18576000915060019050612f3c565b612f3583600381518110612f2857fe5b6020026020010151613a6b565b9150600090505b6040518060e00160405280612f6485600081518110612f5757fe5b6020026020010151613a8e565b8152602001612f8685600181518110612f7957fe5b6020026020010151613a8e565b8152602001612fa885600281518110612f9b57fe5b6020026020010151613a8e565b81526020018373ffffffffffffffffffffffffffffffffffffffff168152602001612fe685600481518110612fd957fe5b6020026020010151613a8e565b815260200161300885600581518110612ffb57fe5b6020026020010151613aff565b81526020018215158152509350505050919050565b43600860009054906101000a900463ffffffff1663ffffffff161115801561305d5750600860049054906101000a900463ffffffff1663ffffffff164311155b6130b2576040517f08c379a000000000000000000000000000000000000000000000000000000000815260040180806020018281038252602f8152602001806145d2602f913960400191505060405180910390fd5b600660019054906101000a90046bffffffffffffffffffffffff166bffffffffffffffffffffffff16811015613133576040517f08c379a000000000000000000000000000000000000000000000000000000000815260040180806020018281038252602e8152602001806144d3602e913960400191505060405180910390fd5b336003600085815260200190815260200160002060006101000a81548173ffffffffffffffffffffffffffffffffffffffff021916908373ffffffffffffffffffffffffffffffffffffffff1602179055506004839080600181540180825580915050906001820390600052602060002001600090919290919091505550505050565b6131be61435f565b60606131d16131cc8461391f565b61394d565b905060606131f2826002815181106131e557fe5b6020026020010151613b8b565b90506040518060e0016040528061321c8460008151811061320f57fe5b6020026020010151613a8e565b815260200161323e8460018151811061323157fe5b6020026020010151613b8b565b815260200161327c6132638560018151811061325657fe5b602002602001015161394d565b60048151811061326f57fe5b6020026020010151613a8e565b60001b81526020018281526020016132a78460028151811061329a57fe5b6020026020010151613a8e565b81526020016132b7836000613c01565b81526020016132d9846003815181106132cc57fe5b602002602001015161394d565b81525092505050919050565b6060600080905060006060806132f961439f565b600087511415613373577f56e81f171bcc55a6ff8345e692c0f86e5b48e01b996cadc001622fb5e363b42160001b891461333257600080fd5b60006040519080825280601f01601f1916602001820160405280156133665781602001600182028038833980820191505090505b509550505050505061375d565b60008090505b87518110156137565761339e88828151811061339157fe5b6020026020010151613b8b565b93506000811480156133b7575083805190602001208a14155b156133c157600080fd5b600081141580156133da57506133d684613d8c565b8514155b156133e457600080fd5b6134008882815181106133f357fe5b602002602001015161394d565b92506002835114156135d157600060606134356134308660008151811061342357fe5b6020026020010151613aff565b613e47565b8092508193505050600061344a898d84613efc565b9050808901985081518110156134b05760018b510384101561346b57600080fd5b60006040519080825280601f01601f19166020018201604052801561349f5781602001600182028038833980820191505090505b50995050505050505050505061375d565b82156135455760018b51038410156134c757600080fd5b8b518910156135155760006040519080825280601f01601f1916602001820160405280156135045781602001600182028038833980820191505090505b50995050505050505050505061375d565b8560018151811061352257fe5b6020026020010151945061353585613aff565b995050505050505050505061375d565b60018b510384141561355657600080fd5b6135738660018151811061356657fe5b6020026020010151613fb6565b6135a2576135948660018151811061358757fe5b6020026020010151613aff565b8051906020012097506135c9565b6135bf866001815181106135b257fe5b6020026020010151613b8b565b8051906020012097505b505050613749565b601183511415613748578851861461370d5760008987815181106135f157fe5b602001015160f81c60f81b60f81c905060018701965060108160ff161061361757600080fd5b613636848260ff168151811061362957fe5b6020026020010151614004565b1561368e576001895103821461364b57600080fd5b60006040519080825280601f01601f19166020018201604052801561367f5781602001600182028038833980820191505090505b5097505050505050505061375d565b6136ad848260ff16815181106136a057fe5b6020026020010151613fb6565b6136de576136d0848260ff16815181106136c357fe5b6020026020010151613aff565b805190602001209550613707565b6136fd848260ff16815181106136f057fe5b6020026020010151613b8b565b8051906020012095505b50613747565b6001885103811461371d57600080fd5b61373a8360108151811061372d57fe5b6020026020010151613aff565b965050505050505061375d565b5b5b8080600101915050613379565b5050505050505b9392505050565b61376c61429f565b606061377f61377a8461391f565b61394d565b90506000806137a18360038151811061379457fe5b6020026020010151613a24565b156137b35760009150600190506137d7565b6137d0836003815181106137c357fe5b6020026020010151613a6b565b9150600090505b604051806101400160405280613800856000815181106137f357fe5b6020026020010151613a8e565b81526020016138228560018151811061381557fe5b6020026020010151613a8e565b81526020016138448560028151811061383757fe5b6020026020010151613a8e565b81526020018373ffffffffffffffffffffffffffffffffffffffff1681526020016138828560048151811061387557fe5b6020026020010151613a8e565b81526020016138a48560058151811061389757fe5b6020026020010151613aff565b81526020016138c6856006815181106138b957fe5b6020026020010151613a8e565b81526020016138e8856007815181106138db57fe5b6020026020010151613a8e565b815260200161390a856008815181106138fd57fe5b6020026020010151613a8e565b81526020018215158152509350505050919050565b61392761439f565b600060208301905060405180604001604052808451815260200182815250915050919050565b606061395882613fb6565b61396157600080fd5b600061396c8361403d565b9050806040519080825280602002602001820160405280156139a857816020015b6139956143b9565b81526020019060019003908161398d5790505b50915060006139ba84602001516140ae565b8460200151019050600080600090505b83811015613a1b576139db83614137565b91506040518060400160405280838152602001848152508582815181106139fe57fe5b6020026020010181905250818301925080806001019150506139ca565b50505050919050565b60006001826000015114613a3b5760009050613a66565b60008083602001519050805160001a915060808260ff161480613a61575060c08260ff16145b925050505b919050565b60006015826000015114613a7e57600080fd5b613a8782613a8e565b9050919050565b6000808260000151118015613aa857506021826000015111155b613ab157600080fd5b6000613ac083602001516140ae565b90506000818460000151039050600080838660200151019050805191506020831015613af357826020036101000a820491505b81945050505050919050565b60606000826000015111613b1257600080fd5b6000613b2183602001516140ae565b905060008184600001510390506060816040519080825280601f01601f191660200182016040528015613b635781602001600182028038833980820191505090505b5090506000816020019050613b7f8487602001510182856141ea565b81945050505050919050565b60608082600001516040519080825280601f01601f191660200182016040528015613bc55781602001600182028038833980820191505090505b509050600081511415613bdb5780915050613bfc565b6000816020019050613bf684602001518286600001516141ea565b81925050505b919050565b60606000835111613c1157600080fd5b60006002845102905080831115613c2757600080fd5b8281039050806040519080825280601f01601f191660200182016040528015613c5f5781602001600182028038833980820191505090505b509150600080905060008490505b828501811015613d7957600060028281613c8357fe5b061415613cfb57600f60048760028481613c9957fe5b0481518110613ca457fe5b602001015160f81c60f81b60f81c60ff16901c1660f81b848381518110613cc757fe5b60200101907effffffffffffffffffffffffffffffffffffffffffffffffffffffffffffff1916908160001a905350613d68565b600f60008760028481613d0a57fe5b0481518110613d1557fe5b602001015160f81c60f81b60f81c60ff16901c1660f81b848381518110613d3857fe5b60200101907effffffffffffffffffffffffffffffffffffffffffffffffffffffffffffff1916908160001a9053505b600182019150600181019050613c6d565b5082518114613d8457fe5b505092915050565b6000602082511015613da75781805190602001209050613e42565b816040516020018082805190602001908083835b60208310613dde5780518252602082019150602081019050602083039250613dbb565b6001836020036101000a03801982511681845116808217855250505050505090500191505060405160208183030381529060405280519060200120604051602001808281526020019150506040516020818303038152906040528051906020012090505b919050565b600060606000835111613e5957600080fd5b6000600f600485600081518110613e6c57fe5b602001015160f81c60f81b60f81c60ff16901c1660ff169050600080821415613e9c576002905060009350613ee6565b6001821415613eb2576001905060009350613ee5565b6002821415613ec8576002905060019350613ee4565b6003821415613ede576001905060019350613ee3565b600080fd5b5b5b5b83613ef18683613c01565b935093505050915091565b600080600090505b8351858201108015613f165750825181105b15613faa57828181518110613f2757fe5b602001015160f81c60f81b7effffffffffffffffffffffffffffffffffffffffffffffffffffffffffffff19168486830181518110613f6257fe5b602001015160f81c60f81b7effffffffffffffffffffffffffffffffffffffffffffffffffffffffffffff191614613f9d5780915050613faf565b8080600101915050613f04565b809150505b9392505050565b60008082600001511415613fcd5760009050613fff565b60008083602001519050805160001a915060c060ff168260ff161015613ff857600092505050613fff565b6001925050505b919050565b6000600182600001511461401b5760009050614038565b60008083602001519050805160001a915060808260ff1614925050505b919050565b6000808260000151141561405457600090506140a9565b6000809050600061406884602001516140ae565b84602001510190506000846000015185602001510190505b808210156140a25761409182614137565b820191508280600101935050614080565b8293505050505b919050565b600080825160001a9050608060ff168110156140ce576000915050614132565b60b860ff168110806140f3575060c060ff1681101580156140f2575060f860ff1681105b5b15614102576001915050614132565b60c060ff168110156141225760018060b80360ff16820301915050614132565b60018060f80360ff168203019150505b919050565b600080825160001a9050608060ff168110156141575760019150506141e5565b60b860ff16811015614175576001608060ff168203019150506141e5565b60c060ff168110156141a55760b78103600184019350806020036101000a845104600182018101935050506141e3565b60f860ff168110156141c357600160c060ff168203019150506141e5565b60f78103600184019350806020036101000a845104600182018101935050505b505b919050565b60008114156141f85761424c565b5b602060ff1681106142285782518252602060ff1683019250602060ff1682019150602060ff16810390506141f9565b6000600182602060ff16036101000a03905080198451168184511681811785525050505b505050565b604051806080016040528060006bffffffffffffffffffffffff16815260200160006bffffffffffffffffffffffff168152602001600063ffffffff168152602001600061ffff1681525090565b604051806101400160405280600081526020016000815260200160008152602001600073ffffffffffffffffffffffffffffffffffffffff16815260200160008152602001606081526020016000815260200160008152602001600081526020016000151581525090565b6040518060e00160405280600081526020016000815260200160008152602001600073ffffffffffffffffffffffffffffffffffffffff16815260200160008152602001606081526020016000151581525090565b6040518060e00160405280600081526020016060815260200160008019168152602001606081526020016000815260200160608152602001606081525090565b604051806040016040528060008152602001600081525090565b60405180604001604052806000815260200160008152509056fe436869636b656e202d207374617274426c6f636b2069732067726561746572207468616e20737461727452657665616c426c6f636b436869636b656e202d2073656e646572206973206e6f742067616d652063726561746f72436869636b656e202d2077696e6e657220776173206e6f742073656c6563746564436869636b656e202d20436f6e74726163742063616e20626520696e69746961746564206f6e6c79206f6e6365436869636b656e202d20736563726574436f6d6d6974426c6f636b2068617320646966666572656e742068617368436869636b656e202d2073656e646572206973206e6f74206f776e6572206f66207375626d6172696e65436869636b656e202d20616d6f756e742073656e74206973206c657373207468616e206d696e696d756d20626574436869636b656e202d20426c6f636b206e756d6265722069732067726561746572207468616e207374617274426c6f636b5761697420666f7220636f6d6d6974506572696f644c656e67746820626c6f636b73206265666f72652072657665616c696e67436869636b656e202d204f6e6c7920636f6e74726163742063726561746f722063616e20696e69742047616d65436f6d6d697420426c6f636b20697320746f6f206f6c6420746f20726574726569766520626c6f636b2068617368206f7220646f6573206e6f74206578697374436869636b656e202d2063757272656e7420626c6f636b206973206e6f7420696e2072657665616c20706572696f64436869636b656e202d206d696e696d756d20626574207761732073657420746f2030436869636b656e202d2072657665616c20706572696f6420686173206e6f7420656e6465642e2063616e27742073656c6563742077696e6e6572596f752063616e206e6576657220756e6c6f636b206c657373206d6f6e6579207468616e20796f7527766520616c726561647920756e6c6f636b65642e436869636b656e202d207375626d6172696e65206973206e6f7420756e6c6f636b6564436869636b656e202d2063757272656e7420626c6f636b20697320736d616c6c6572207468616e20656e642072657665616c20706572696f64a165627a7a7230582072117719debccf4d5388028adb07c6dd309f0b07a69123f4defc49920aeb9d970029",
  "source": "pragma solidity ^0.5.0;\n\nimport \"./LibSubmarineSimple.sol\";\nimport \"./SafeMath.sol\";\n//import \"./openzeppelin-solidity/contracts/token/ERC721/IERC721.sol\";\n//import \"./openzeppelin-solidity/contracts/token/ERC721/IERC721Receiver.sol\";\n\ncontract ChickenSubmarine is LibSubmarineSimple {\n    using SafeMath for uint256; //prevents overflow\n\n    \n    address payable public manager;\n    bool public isInitiated;\n    \n    mapping (bytes32 => address payable) public players; //players[_submarineId] gives us the address of the player\n    bytes32[] public revealedSubmarines;\n    bytes32 public winningSubmarineId;\n    bool public winnerSelected;\n    \n    uint96 public minBet;\n    \n    uint32 public startBlock;\n    uint32 public endCommitBlock;\n    bytes32 public endCommitBlockCrypt;\n    uint32 public startRevealBlock;\n    uint32 public endRevealBlock;\n    //todo - delete this arg\n    bytes32 public kakaBlockNum;\n\n    \n    \n    constructor() public {\n        isInitiated = false;\n        winnerSelected = false; //makes sure winner is selected once within a game\n        manager = msg.sender;\n    }\n\n\n    function initChickenGame(uint32 _StartBlock, uint32 _StartRevealBlock, uint96 _MinBet, bytes32 _endCommitBlockCrypt) public {\n        require(\n            isInitiated == false, \n            \"Chicken - Contract can be initiated only once\"\n        );\n        require(\n            manager == msg.sender,\n            \"Chicken - Only contract creator can init Game\"\n        );\n        require(\n            block.number < _StartBlock,\n            \"Chicken - Block number is greater than startBlock\"\n        );\n        require(\n            _StartBlock < _StartRevealBlock,\n            \"Chicken - startBlock is greater than startRevealBlock\"\n        );\n        require(\n            _MinBet != uint96(0),\n            \"Chicken - minimum bet was set to 0\"\n        );\n\n        startBlock = _StartBlock;\n        startRevealBlock = _StartRevealBlock;\n        endRevealBlock = _StartRevealBlock + 30; // margine for proveth, starting from start block\n        \n        endCommitBlockCrypt = _endCommitBlockCrypt; //promise for endCommitBlock that is > startBlock & < startRevealBlock\n\n        minBet = _MinBet;\n    }\n\n  /*/// @notice This creates the auction.\n  function onERC721Received(\n    address _operator,\n    address _from,\n    uint256 _tokenId,\n    bytes memory _data\n  ) public returns(bytes4) {\n    require(address(erc721) == address(0x0));\n\n    // In solidity 0.5.0, we can just do this:\n    //(startBlock, startRevealBlock, minBet, endCommitBlockCrypt) = abi.decode(_data, (uint32, uint32, uint256, bytes32));\n    // For now, here is some janky assembly hack that does the same thing,\n    // only less efficiently.\n    require(_data.length == 8);\n    bytes memory data = _data; // Copy to memory;\n    uint32 tempStartBlock;\n    uint32 tempEndBlock;\n    assembly {\n      tempStartBlock := div(mload(add(data, 32)), exp(2, 224))\n      tempEndBlock := and(div(mload(add(data, 32)), exp(2, 192)), 0xffffffff)\n    }\n\n    endRevealBlock = startBlock + 180;\n\n    require(block.number < startBlock);\n    require(startBlock < startRevealBlock);\n    require(minBet != uint256(0));\n    erc721 = IERC721(msg.sender);\n    erc721TokenId = _tokenId;\n    manager = address(uint160(_from));\n\n    return bytes4(keccak256(\"onERC721Received(address,address,uint256,bytes)\"));\n  }*/\n\n    function onSubmarineReveal(\n        bytes32 _submarineId,\n        bytes memory _embeddedDAppData,\n        uint256 _value\n    ) internal {\n        require(\n            startRevealBlock <= block.number && block.number <= endRevealBlock,\n            \"Chicken - current block is not in reveal period\"\n        );\n        require(\n            _value >= minBet,\n            \"Chicken - amount sent is less than minimum bet\"\n        ); //verify minimimum participation value\n        \n        players[_submarineId] = msg.sender;\n        revealedSubmarines.push(_submarineId);\n    }\n    \n    \n    function selectWinner(uint32 _secretCommitBlock) public {\n        require(\n            msg.sender == manager,\n            \"Chicken - sender is not game creator\"\n        );\n        require(\n            block.number > endRevealBlock,\n            \"Chicken - reveal period has not ended. can't select winner\"\n        );\n        require(\n            winnerSelected == false,\n            \"Chicken - winner was initialized\"\n        ); //winner must be un-initialized\n        require(\n            keccak256(abi.encodePacked(_secretCommitBlock)) == endCommitBlockCrypt,\n            \"Chicken - secretCommitBlock has different hash\"\n        );\n         \n        \n        endCommitBlock = _secretCommitBlock;\n        // promise to reimburse money (should not enter here)\n        if(endCommitBlock <= startBlock || endCommitBlock >= startRevealBlock) {\n            for (uint j=0; j<revealedSubmarines.length; j++) {\n                bytes32 curr_sub = revealedSubmarines[j];\n                if (revealedAndUnlocked(curr_sub)) {\n                    players[curr_sub].transfer(getSubmarineAmount(curr_sub));\n                }\n            }\n        }\n        \n        uint32 closestBlockTime = startBlock;\n        //select the winner\n        for (uint i=0; i<revealedSubmarines.length; i++) {\n            uint32 commitTxBlockNumber = getSubmarineCommitBlockNumber(revealedSubmarines[i]);\n            \n            if (startBlock <= commitTxBlockNumber && commitTxBlockNumber <= endCommitBlock) {\n                //closest to endCommitBlock wins\n                if (commitTxBlockNumber > closestBlockTime) {\n                    winningSubmarineId = revealedSubmarines[i];\n                    closestBlockTime = commitTxBlockNumber;\n                }\n                //largest bidder at closestBlockTime wins\n                else if (commitTxBlockNumber == closestBlockTime) {\n                    if (getSubmarineAmount(revealedSubmarines[i]) > getSubmarineAmount(winningSubmarineId)) {\n                        winningSubmarineId = revealedSubmarines[i];\n                    }\n                    //else (if equal), first revealer wins\n                }\n            }\n        }\n        \n        winnerSelected = true;\n    }\n    \n    \n    function finalize(bytes32 _submarineId) external {\n        require(\n            block.number > endRevealBlock,\n            \"Chicken - current block is smaller than end reveal period\"\n        );\n        require(\n            _submarineId != bytes32(0),\n            \"Chicken - submarineId is 0\"\n        ); // prevent cheating if no winner is selected\n        require(\n            winnerSelected == true,\n            \"Chicken - winner was not selected\"\n        );\n        require(\n            revealedAndUnlocked(_submarineId),\n            \"Chicken - submarine is not unlocked\"\n        );\n        require(\n            players[_submarineId] == msg.sender,\n            \"Chicken - sender is not owner of submarine\"\n        );\n    \n        if (winningSubmarineId == bytes32(0) || _submarineId == winningSubmarineId) {\n            //send money to winner | or to every participant if no winner was selected\n            //send commition to manager\n            msg.sender.transfer(getSubmarineAmount(_submarineId)*95/100);\n            manager.transfer(getSubmarineAmount(_submarineId)*5/100);\n        } else {\n            //send money to winner\n            //send consolation prize to looser\n            players[winningSubmarineId].transfer(getSubmarineAmount(_submarineId)*5/10);\n            msg.sender.transfer(getSubmarineAmount(_submarineId)*45/100);\n            manager.transfer(getSubmarineAmount(_submarineId)*5/100);\n        }\n    }\n    function _helper_kaka(uint32 blockNum) public{\n        kakaBlockNum = keccak256(abi.encodePacked(blockNum));\n    }\n}\n",
  "sourcePath": "/home/boris/Chicken_truffle_0p5/contracts/ChickenSubmarine.sol",
  "compiler": {
    "name": "solc",
    "version": "0.5.8+commit.23d335f2.Emscripten.clang"
  },
  "schemaVersion": "3.0.11",
  "updatedAt": "2019-09-20T11:04:05.015Z",
  "devdoc": {
    "methods": {
      "getSubmarineAmount(bytes32)": {
        "return": "amountRevealed amount promised by user to be unlocked in reveal"
      },
      "getSubmarineCommitBlockNumber(bytes32)": {
        "return": "commitTxBlockNumber block number that the user proved holds the        commit TX."
      },
      "getSubmarineCommitTxIndex(bytes32)": {
        "return": "commitTxIndex the index in the block where the commit tx is."
      },
      "getSubmarineId(address,address,uint256,bytes,bytes32,uint256,uint256)": {
        "params": {
          "_commitValue": "amount of ether supposed to be sent in this submarine       commit",
          "_embeddedDAppData": "optional Data passed embedded within the unlock       tx. Clients can put whatever data they want committed to for their       specific use case",
          "_gasLimit": "the gas limit that will be set in the unlock tx",
          "_gasPrice": "the gas price that will be paid in the unlock tx",
          "_libsubmarine": "address of submarine contract. Usually address(this)",
          "_user": "address of the user that initiated the full submarine flow",
          "_witness": "random commit secret data"
        }
      },
      "getSubmarineState(bytes32)": {
        "return": "amountRevealed amount promised by user to be unlocked in revealamountUnlocked amount actually unlocked by the user at this timecommitTxBlockNumber block number that the user proved holds the        commit TX.commitTxIndex the index in the block where the commit tx is."
      },
      "reveal(uint32,bytes,bytes32,bytes,bytes)": {
        "details": "warning Must be called within 256 blocks of the commit transaction     to obtain the correct blockhash.",
        "params": {
          "_commitTxBlockNumber": "Number of block in which the commit tx was       included.",
          "_embeddedDAppData": "optional Data passed embedded within the unlock tx. This should probably be null",
          "_proofBlob": "the proof blob that gets passed to proveth to verify       merkle trie inclusion in a prior block.",
          "_rlpUnlockTxUnsigned": "RLP encoded unsigned unlock transaction",
          "_witness": "Witness \"secret\" we committed to"
        }
      },
      "revealedAndUnlocked(bytes32)": {
        "params": {
          "_submarineId": "committed data; The commit instance representing the       commit/reveal transaction"
        },
        "return": "bool whether the commit has a stored submarine send that has been        completed for it (0 for failure / not yet finished, 1 for        successful submarine TX)"
      },
      "unlock(bytes32)": {
        "details": "warning this function does NO validation whatsoever.     ALL validation is done in the reveal.",
        "params": {
          "_submarineId": "committed data; The commit instance representing the       commit/reveal transaction"
        }
      }
    }
  },
  "userdoc": {
    "methods": {
      "getSubmarineAmount(bytes32)": {
        "notice": "Singleton session getter - amount of money sent in submarine send"
      },
      "getSubmarineCommitBlockNumber(bytes32)": {
        "notice": "Singleton session getter - Commit TX Block number"
      },
      "getSubmarineCommitTxIndex(bytes32)": {
        "notice": "Singleton session getter - Commit TX Block index inside block"
      },
      "getSubmarineId(address,address,uint256,bytes,bytes32,uint256,uint256)": {
        "notice": "Helper function to return a submarine ID for associated given        input data"
      },
      "getSubmarineState(bytes32)": {
        "notice": "Return the session information associated with a submarine ID."
      },
      "reveal(uint32,bytes,bytes32,bytes,bytes)": {
        "notice": "Function called by the user to reveal the session."
      },
      "revealedAndUnlocked(bytes32)": {
        "notice": "revealedAndUnlocked can be called to determine if a submarine        send transaction has been successfully completed for a given        submarineId"
      },
      "unlock(bytes32)": {
        "notice": "Function called by the submarine address to unlock the session."
      }
    }
  }
}