{
  "contractName": "ProvethVerifier",
  "abi": [
    {
      "constant": true,
      "inputs": [],
      "name": "TX_PROOF_RESULT_PRESENT",
      "outputs": [
        {
          "name": "",
          "type": "uint8"
        }
      ],
      "payable": false,
      "stateMutability": "view",
      "type": "function"
    },
    {
      "constant": true,
      "inputs": [],
      "name": "TX_PROOF_RESULT_ABSENT",
      "outputs": [
        {
          "name": "",
          "type": "uint8"
        }
      ],
      "payable": false,
      "stateMutability": "view",
      "type": "function"
    },
    {
      "constant": true,
      "inputs": [
        {
          "name": "blockHash",
          "type": "bytes32"
        },
        {
          "name": "proofBlob",
          "type": "bytes"
        }
      ],
      "name": "txProof",
      "outputs": [
        {
          "name": "result",
          "type": "uint8"
        },
        {
          "name": "index",
          "type": "uint256"
        },
        {
          "name": "nonce",
          "type": "uint256"
        },
        {
          "name": "gasprice",
          "type": "uint256"
        },
        {
          "name": "startgas",
          "type": "uint256"
        },
        {
          "name": "to",
          "type": "address"
        },
        {
          "name": "value",
          "type": "uint256"
        },
        {
          "name": "data",
          "type": "bytes"
        },
        {
          "name": "v",
          "type": "uint256"
        },
        {
          "name": "r",
          "type": "uint256"
        },
        {
          "name": "s",
          "type": "uint256"
        },
        {
          "name": "isContractCreation",
          "type": "bool"
        }
      ],
      "payable": false,
      "stateMutability": "pure",
      "type": "function"
    }
  ],
  "bytecode": "0x608060405234801561001057600080fd5b5061158a806100206000396000f3fe608060405234801561001057600080fd5b50600436106100415760003560e01c80631c21312514610046578063df2e7efe1461006a578063fb87f9761461022b575b600080fd5b61004e61024f565b604051808260ff1660ff16815260200191505060405180910390f35b61012d6004803603604081101561008057600080fd5b8101908080359060200190929190803590602001906401000000008111156100a757600080fd5b8201836020820111156100b957600080fd5b803590602001918460018302840111640100000000831117156100db57600080fd5b91908080601f016020809104026020016040519081016040528093929190818152602001838380828437600081840152601f19601f820116905080830192505050505050509192919290505050610254565b604051808d60ff1660ff1681526020018c81526020018b81526020018a81526020018981526020018873ffffffffffffffffffffffffffffffffffffffff1673ffffffffffffffffffffffffffffffffffffffff1681526020018781526020018060200186815260200185815260200184815260200183151515158152602001828103825287818151815260200191508051906020019080838360005b838110156101e55780820151818401526020810190506101ca565b50505050905090810190601f1680156102125780820380516001836020036101000a031916815260200191505b509d505050505050505050505050505060405180910390f35b6102336102de565b604051808260ff1660ff16815260200191505060405180910390f35b600181565b6000806000806000806000606060008060008061026f61147f565b6102798f8f6102e3565b809350819e50829f5050505080600001519a50806020015199508060400151985080606001519750806080015196508060a0015195508060c0015194508060e00151935080610100015192508061012001519150509295989b509295989b509295989b565b600281565b6000806102ee61147f565b60009250600091506102fe6114ea565b610307856103e4565b9050600181600001511461031a57600080fd5b8581602001516040518082805190602001908083835b602083106103535780518252602082019150602081019050602083039250610330565b6001836020036101000a03801982511681845116808217855250505050505090500191505060405180910390201461038a57600080fd5b60606103a382604001518360a001518460c00151610513565b90506000815114156103c457600282608001518494509450945050506103dd565b600182608001516103d483610992565b94509450945050505b9250925092565b6103ec6114ea565b60606103ff6103fa84610b4d565b610b7b565b905060606104208260028151811061041357fe5b6020026020010151610c52565b90506040518060e0016040528061044a8460008151811061043d57fe5b6020026020010151610cc8565b815260200161046c8460018151811061045f57fe5b6020026020010151610c52565b81526020016104aa6104918560018151811061048457fe5b6020026020010151610b7b565b60048151811061049d57fe5b6020026020010151610cc8565b60001b81526020018281526020016104d5846002815181106104c857fe5b6020026020010151610cc8565b81526020016104e5836000610d39565b8152602001610507846003815181106104fa57fe5b6020026020010151610b7b565b81525092505050919050565b60606000809050600060608061052761152a565b6000875114156105a1577f56e81f171bcc55a6ff8345e692c0f86e5b48e01b996cadc001622fb5e363b42160001b891461056057600080fd5b60006040519080825280601f01601f1916602001820160405280156105945781602001600182028038833980820191505090505b509550505050505061098b565b60008090505b8751811015610984576105cc8882815181106105bf57fe5b6020026020010151610c52565b93506000811480156105e5575083805190602001208a14155b156105ef57600080fd5b60008114158015610608575061060484610ec4565b8514155b1561061257600080fd5b61062e88828151811061062157fe5b6020026020010151610b7b565b92506002835114156107ff576000606061066361065e8660008151811061065157fe5b6020026020010151610f7f565b61100b565b80925081935050506000610678898d846110c0565b9050808901985081518110156106de5760018b510384101561069957600080fd5b60006040519080825280601f01601f1916602001820160405280156106cd5781602001600182028038833980820191505090505b50995050505050505050505061098b565b82156107735760018b51038410156106f557600080fd5b8b518910156107435760006040519080825280601f01601f1916602001820160405280156107325781602001600182028038833980820191505090505b50995050505050505050505061098b565b8560018151811061075057fe5b6020026020010151945061076385610f7f565b995050505050505050505061098b565b60018b510384141561078457600080fd5b6107a18660018151811061079457fe5b602002602001015161117a565b6107d0576107c2866001815181106107b557fe5b6020026020010151610f7f565b8051906020012097506107f7565b6107ed866001815181106107e057fe5b6020026020010151610c52565b8051906020012097505b505050610977565b601183511415610976578851861461093b57600089878151811061081f57fe5b602001015160f81c60f81b60f81c905060018701965060108160ff161061084557600080fd5b610864848260ff168151811061085757fe5b60200260200101516111c8565b156108bc576001895103821461087957600080fd5b60006040519080825280601f01601f1916602001820160405280156108ad5781602001600182028038833980820191505090505b5097505050505050505061098b565b6108db848260ff16815181106108ce57fe5b602002602001015161117a565b61090c576108fe848260ff16815181106108f157fe5b6020026020010151610f7f565b805190602001209550610935565b61092b848260ff168151811061091e57fe5b6020026020010151610c52565b8051906020012095505b50610975565b6001885103811461094b57600080fd5b6109688360108151811061095b57fe5b6020026020010151610f7f565b965050505050505061098b565b5b5b80806001019150506105a7565b5050505050505b9392505050565b61099a61147f565b60606109ad6109a884610b4d565b610b7b565b90506000806109cf836003815181106109c257fe5b6020026020010151611201565b156109e1576000915060019050610a05565b6109fe836003815181106109f157fe5b6020026020010151611248565b9150600090505b604051806101400160405280610a2e85600081518110610a2157fe5b6020026020010151610cc8565b8152602001610a5085600181518110610a4357fe5b6020026020010151610cc8565b8152602001610a7285600281518110610a6557fe5b6020026020010151610cc8565b81526020018373ffffffffffffffffffffffffffffffffffffffff168152602001610ab085600481518110610aa357fe5b6020026020010151610cc8565b8152602001610ad285600581518110610ac557fe5b6020026020010151610f7f565b8152602001610af485600681518110610ae757fe5b6020026020010151610cc8565b8152602001610b1685600781518110610b0957fe5b6020026020010151610cc8565b8152602001610b3885600881518110610b2b57fe5b6020026020010151610cc8565b81526020018215158152509350505050919050565b610b5561152a565b600060208301905060405180604001604052808451815260200182815250915050919050565b6060610b868261117a565b610b8f57600080fd5b6000610b9a8361126b565b905080604051908082528060200260200182016040528015610bd657816020015b610bc3611544565b815260200190600190039081610bbb5790505b5091506000610be884602001516112dc565b8460200151019050600080600090505b83811015610c4957610c0983611365565b9150604051806040016040528083815260200184815250858281518110610c2c57fe5b602002602001018190525081830192508080600101915050610bf8565b50505050919050565b60608082600001516040519080825280601f01601f191660200182016040528015610c8c5781602001600182028038833980820191505090505b509050600081511415610ca25780915050610cc3565b6000816020019050610cbd8460200151828660000151611418565b81925050505b919050565b6000808260000151118015610ce257506021826000015111155b610ceb57600080fd5b6000610cfa83602001516112dc565b90506000818460000151039050600080838660200151019050805191506020831015610d2d57826020036101000a820491505b81945050505050919050565b60606000835111610d4957600080fd5b60006002845102905080831115610d5f57600080fd5b8281039050806040519080825280601f01601f191660200182016040528015610d975781602001600182028038833980820191505090505b509150600080905060008490505b828501811015610eb157600060028281610dbb57fe5b061415610e3357600f60048760028481610dd157fe5b0481518110610ddc57fe5b602001015160f81c60f81b60f81c60ff16901c1660f81b848381518110610dff57fe5b60200101907effffffffffffffffffffffffffffffffffffffffffffffffffffffffffffff1916908160001a905350610ea0565b600f60008760028481610e4257fe5b0481518110610e4d57fe5b602001015160f81c60f81b60f81c60ff16901c1660f81b848381518110610e7057fe5b60200101907effffffffffffffffffffffffffffffffffffffffffffffffffffffffffffff1916908160001a9053505b600182019150600181019050610da5565b5082518114610ebc57fe5b505092915050565b6000602082511015610edf5781805190602001209050610f7a565b816040516020018082805190602001908083835b60208310610f165780518252602082019150602081019050602083039250610ef3565b6001836020036101000a03801982511681845116808217855250505050505090500191505060405160208183030381529060405280519060200120604051602001808281526020019150506040516020818303038152906040528051906020012090505b919050565b60606000826000015111610f9257600080fd5b6000610fa183602001516112dc565b905060008184600001510390506060816040519080825280601f01601f191660200182016040528015610fe35781602001600182028038833980820191505090505b5090506000816020019050610fff848760200151018285611418565b81945050505050919050565b60006060600083511161101d57600080fd5b6000600f60048560008151811061103057fe5b602001015160f81c60f81b60f81c60ff16901c1660ff1690506000808214156110605760029050600093506110aa565b60018214156110765760019050600093506110a9565b600282141561108c5760029050600193506110a8565b60038214156110a25760019050600193506110a7565b600080fd5b5b5b5b836110b58683610d39565b935093505050915091565b600080600090505b83518582011080156110da5750825181105b1561116e578281815181106110eb57fe5b602001015160f81c60f81b7effffffffffffffffffffffffffffffffffffffffffffffffffffffffffffff1916848683018151811061112657fe5b602001015160f81c60f81b7effffffffffffffffffffffffffffffffffffffffffffffffffffffffffffff1916146111615780915050611173565b80806001019150506110c8565b809150505b9392505050565b6000808260000151141561119157600090506111c3565b60008083602001519050805160001a915060c060ff168260ff1610156111bc576000925050506111c3565b6001925050505b919050565b600060018260000151146111df57600090506111fc565b60008083602001519050805160001a915060808260ff1614925050505b919050565b600060018260000151146112185760009050611243565b60008083602001519050805160001a915060808260ff16148061123e575060c08260ff16145b925050505b919050565b6000601582600001511461125b57600080fd5b61126482610cc8565b9050919050565b6000808260000151141561128257600090506112d7565b6000809050600061129684602001516112dc565b84602001510190506000846000015185602001510190505b808210156112d0576112bf82611365565b8201915082806001019350506112ae565b8293505050505b919050565b600080825160001a9050608060ff168110156112fc576000915050611360565b60b860ff16811080611321575060c060ff168110158015611320575060f860ff1681105b5b15611330576001915050611360565b60c060ff168110156113505760018060b80360ff16820301915050611360565b60018060f80360ff168203019150505b919050565b600080825160001a9050608060ff16811015611385576001915050611413565b60b860ff168110156113a3576001608060ff16820301915050611413565b60c060ff168110156113d35760b78103600184019350806020036101000a84510460018201810193505050611411565b60f860ff168110156113f157600160c060ff16820301915050611413565b60f78103600184019350806020036101000a845104600182018101935050505b505b919050565b60008114156114265761147a565b5b602060ff1681106114565782518252602060ff1683019250602060ff1682019150602060ff1681039050611427565b6000600182602060ff16036101000a03905080198451168184511681811785525050505b505050565b604051806101400160405280600081526020016000815260200160008152602001600073ffffffffffffffffffffffffffffffffffffffff16815260200160008152602001606081526020016000815260200160008152602001600081526020016000151581525090565b6040518060e00160405280600081526020016060815260200160008019168152602001606081526020016000815260200160608152602001606081525090565b604051806040016040528060008152602001600081525090565b60405180604001604052806000815260200160008152509056fea165627a7a72305820977e092949faadb957b6e6c0057eb4f628b4886d06d015a695c6a26d68ce25520029",
  "source": "pragma solidity ^0.5.0;\n\nimport \"./RLPReader.sol\";\n\ncontract ProvethVerifier {\n    using RLPReader for RLPReader.RLPItem;\n    using RLPReader for bytes;\n\n    uint256 constant TX_ROOT_HASH_INDEX = 4;\n\n    struct UnsignedTransaction {\n        uint256 nonce;\n        uint256 gasprice;\n        uint256 startgas;\n        address to;\n        uint256 value;\n        bytes data;\n        bool isContractCreation;\n    }\n\n    struct SignedTransaction {\n        uint256 nonce;\n        uint256 gasprice;\n        uint256 startgas;\n        address to;\n        uint256 value;\n        bytes data;\n        uint256 v;\n        uint256 r;\n        uint256 s;\n        bool isContractCreation;\n    }\n\n    function isEmpty(RLPReader.RLPItem memory item) internal pure returns (bool) {\n        if (item.len != 1) {\n            return false;\n        }\n        uint8 b;\n        uint memPtr = item.memPtr;\n        assembly {\n            b := byte(0, mload(memPtr))\n        }\n        return b == 0x80 /* empty byte string */ || b == 0xc0 /* empty list */;\n    }\n\n    function isEmptyBytesequence(RLPReader.RLPItem memory item) internal pure returns (bool) {\n        if (item.len != 1) {\n            return false;\n        }\n        uint8 b;\n        uint memPtr = item.memPtr;\n        assembly {\n            b := byte(0, mload(memPtr))\n        }\n        return b == 0x80 /* empty byte string */;\n    }\n\n\n    function decodeUnsignedTx(bytes memory rlpUnsignedTx) internal pure returns (UnsignedTransaction memory t) {\n        RLPReader.RLPItem[] memory fields = rlpUnsignedTx.toRlpItem().toList();\n        require(fields.length == 6);\n        address potentialAddress;\n        bool isContractCreation;\n        if(isEmpty(fields[3])) {\n            potentialAddress = 0x0000000000000000000000000000000000000000;\n            isContractCreation = true;\n        } else {\n            potentialAddress = fields[3].toAddress();\n            isContractCreation = false;\n        }\n        t = UnsignedTransaction(\n            fields[0].toUint(), // nonce\n            fields[1].toUint(), // gasprice\n            fields[2].toUint(), // startgas\n            potentialAddress,   // to\n            fields[4].toUint(), // value\n            fields[5].toBytes(), // data\n            isContractCreation\n        );\n    }\n\n    function decodeSignedTx(bytes memory rlpSignedTx) internal pure returns (SignedTransaction memory t) {\n        RLPReader.RLPItem[] memory fields = rlpSignedTx.toRlpItem().toList();\n        address potentialAddress;\n        bool isContractCreation;\n        if(isEmpty(fields[3])) {\n            potentialAddress = 0x0000000000000000000000000000000000000000;\n            isContractCreation = true;\n        } else {\n            potentialAddress = fields[3].toAddress();\n            isContractCreation = false;\n        }\n        t = SignedTransaction(\n            fields[0].toUint(),\n            fields[1].toUint(),\n            fields[2].toUint(),\n            potentialAddress,\n            fields[4].toUint(),\n            fields[5].toBytes(),\n            fields[6].toUint(),\n            fields[7].toUint(),\n            fields[8].toUint(),\n            isContractCreation\n        );\n    }\n\n    function decodeNibbles(bytes memory compact, uint skipNibbles) internal pure returns (bytes memory nibbles) {\n        require(compact.length > 0);\n\n        uint length = compact.length * 2;\n        require(skipNibbles <= length);\n        length -= skipNibbles;\n\n        nibbles = new bytes(length);\n        uint nibblesLength = 0;\n\n        for (uint i = skipNibbles; i < skipNibbles + length; i += 1) {\n            if (i % 2 == 0) {\n                nibbles[nibblesLength] = bytes1((uint8(compact[i/2]) >> 4) & 0xF);\n            } else {\n                nibbles[nibblesLength] = bytes1((uint8(compact[i/2]) >> 0) & 0xF);\n            }\n            nibblesLength += 1;\n        }\n\n        assert(nibblesLength == nibbles.length);\n    }\n\n    function merklePatriciaCompactDecode(bytes memory compact) internal pure returns (bool isLeaf, bytes memory nibbles) {\n        require(compact.length > 0);\n        uint first_nibble = uint8(compact[0]) >> 4 & 0xF;\n        uint skipNibbles;\n        if (first_nibble == 0) {\n            skipNibbles = 2;\n            isLeaf = false;\n        } else if (first_nibble == 1) {\n            skipNibbles = 1;\n            isLeaf = false;\n        } else if (first_nibble == 2) {\n            skipNibbles = 2;\n            isLeaf = true;\n        } else if (first_nibble == 3) {\n            skipNibbles = 1;\n            isLeaf = true;\n        } else {\n            // Not supposed to happen!\n            revert();\n        }\n        return (isLeaf, decodeNibbles(compact, skipNibbles));\n    }\n\n    function sharedPrefixLength(uint xsOffset, bytes memory xs, bytes memory ys) internal pure returns (uint) {\n        uint i;\n        for (i = 0; i + xsOffset < xs.length && i < ys.length; i++) {\n            if (xs[i + xsOffset] != ys[i]) {\n                return i;\n            }\n        }\n        return i;\n    }\n\n    struct Proof {\n        uint256 kind;\n        bytes rlpBlockHeader;\n        bytes32 txRootHash;\n        bytes rlpTxIndex;\n        uint txIndex;\n        bytes mptKey;\n        RLPReader.RLPItem[] stack;\n    }\n\n    function decodeProofBlob(bytes memory proofBlob) internal pure returns (Proof memory proof) {\n        RLPReader.RLPItem[] memory proofFields = proofBlob.toRlpItem().toList();\n        bytes memory rlpTxIndex = proofFields[2].toRlpBytes();\n        proof = Proof(\n            proofFields[0].toUint(),\n            proofFields[1].toRlpBytes(),\n            bytes32(proofFields[1].toList()[TX_ROOT_HASH_INDEX].toUint()),\n            rlpTxIndex,\n            proofFields[2].toUint(),\n            decodeNibbles(rlpTxIndex, 0),\n            proofFields[3].toList()\n        );\n    }\n\n    uint8 constant public TX_PROOF_RESULT_PRESENT = 1;\n    uint8 constant public TX_PROOF_RESULT_ABSENT = 2;\n\n    function txProof(\n        bytes32 blockHash,\n        bytes memory proofBlob\n    ) public pure returns (\n        uint8 result, // see TX_PROOF_RESULT_*\n        uint256 index,\n        uint256 nonce,\n        uint256 gasprice,\n        uint256 startgas,\n        address to, // 20 byte address for \"regular\" tx,\n                    // empty for contract creation tx\n        uint256 value,\n        bytes memory data,\n        uint256 v,\n        uint256 r,\n        uint256 s,\n        bool isContractCreation\n    ) {\n        SignedTransaction memory t;\n        (result, index, t) = validateTxProof(blockHash, proofBlob);\n        nonce = t.nonce;\n        gasprice = t.gasprice;\n        startgas = t.startgas;\n        to = t.to;\n        value = t.value;\n        data = t.data;\n        v = t.v;\n        r = t.r;\n        s = t.s;\n        isContractCreation = t.isContractCreation;\n    }\n\n    function validateTxProof(\n        bytes32 blockHash,\n        bytes memory proofBlob\n    ) internal pure returns (uint8 result, uint256 index, SignedTransaction memory t) {\n        result = 0;\n        index = 0;\n        Proof memory proof = decodeProofBlob(proofBlob);\n        if (proof.kind != 1) {\n            revert();\n        }\n\n        if (keccak256(proof.rlpBlockHeader) != blockHash) {\n            revert();\n        }\n\n\n        bytes memory rlpTx = validateMPTProof(proof.txRootHash, proof.mptKey, proof.stack);\n\n        if (rlpTx.length == 0) {\n            // empty node\n            return (\n                TX_PROOF_RESULT_ABSENT,\n                proof.txIndex,\n                t\n            );\n        } else {\n            return (\n                TX_PROOF_RESULT_PRESENT,\n                proof.txIndex,\n                decodeSignedTx(rlpTx)\n            );\n        }\n    }\n\n    /// @dev Computes the hash of the Merkle-Patricia-Trie hash of the input.\n    ///      Merkle-Patricia-Tries use a weird \"hash function\" that outputs\n    ///      *variable-length* hashes: If the input is shorter than 32 bytes,\n    ///      the MPT hash is the input. Otherwise, the MPT hash is the\n    ///      Keccak-256 hash of the input.\n    ///      The easiest way to compare variable-length byte sequences is\n    ///      to compare their Keccak-256 hashes.\n    /// @param input The byte sequence to be hashed.\n    /// @return Keccak-256(MPT-hash(input))\n    function mptHashHash(bytes memory input) internal pure returns (bytes32) {\n        if (input.length < 32) {\n            return keccak256(input);\n        } else {\n            return keccak256(abi.encodePacked(keccak256(abi.encodePacked(input))));\n        }\n    }\n\n    /// @dev Validates a Merkle-Patricia-Trie proof.\n    ///      If the proof proves the inclusion of some key-value pair in the\n    ///      trie, the value is returned. Otherwise, i.e. if the proof proves\n    ///      the exclusion of a key from the trie, an empty byte array is\n    ///      returned.\n    /// @param rootHash is the Keccak-256 hash of the root node of the MPT.\n    /// @param mptKey is the key (consisting of nibbles) of the node whose\n    ///        inclusion/exclusion we are proving.\n    /// @param stack is the stack of MPT nodes (starting with the root) that\n    ///        need to be traversed during verification.\n    /// @return value whose inclusion is proved or an empty byte array for\n    ///         a proof of exclusion\n    function validateMPTProof(\n        bytes32 rootHash,\n        bytes memory mptKey,\n        RLPReader.RLPItem[] memory stack\n    ) internal pure returns (bytes memory value) {\n        uint mptKeyOffset = 0;\n\n        bytes32 nodeHashHash;\n        bytes memory rlpNode;\n        RLPReader.RLPItem[] memory node;\n\n        RLPReader.RLPItem memory rlpValue;\n\n        if (stack.length == 0) {\n            // Root hash of empty Merkle-Patricia-Trie\n            require(rootHash == 0x56e81f171bcc55a6ff8345e692c0f86e5b48e01b996cadc001622fb5e363b421);\n            return new bytes(0);\n        }\n\n        // Traverse stack of nodes starting at root.\n        for (uint i = 0; i < stack.length; i++) {\n\n            // We use the fact that an rlp encoded list consists of some\n            // encoding of its length plus the concatenation of its\n            // *rlp-encoded* items.\n            rlpNode = stack[i].toRlpBytes();\n            // The root node is hashed with Keccak-256 ...\n            if (i == 0 && rootHash != keccak256(rlpNode)) {\n                revert();\n            }\n            // ... whereas all other nodes are hashed with the MPT\n            // hash function.\n            if (i != 0 && nodeHashHash != mptHashHash(rlpNode)) {\n                revert();\n            }\n            // We verified that stack[i] has the correct hash, so we\n            // may safely decode it.\n            node = stack[i].toList();\n\n            if (node.length == 2) {\n                // Extension or Leaf node\n\n                bool isLeaf;\n                bytes memory nodeKey;\n                (isLeaf, nodeKey) = merklePatriciaCompactDecode(node[0].toBytes());\n\n                uint prefixLength = sharedPrefixLength(mptKeyOffset, mptKey, nodeKey);\n                mptKeyOffset += prefixLength;\n\n                if (prefixLength < nodeKey.length) {\n                    // Proof claims divergent extension or leaf. (Only\n                    // relevant for proofs of exclusion.)\n                    // An Extension/Leaf node is divergent iff it \"skips\" over\n                    // the point at which a Branch node should have been had the\n                    // excluded key been included in the trie.\n                    // Example: Imagine a proof of exclusion for path [1, 4],\n                    // where the current node is a Leaf node with\n                    // path [1, 3, 3, 7]. For [1, 4] to be included, there\n                    // should have been a Branch node at [1] with a child\n                    // at 3 and a child at 4.\n\n                    // Sanity check\n                    if (i < stack.length - 1) {\n                        // divergent node must come last in proof\n                        revert();\n                    }\n\n                    return new bytes(0);\n                }\n\n                if (isLeaf) {\n                    // Sanity check\n                    if (i < stack.length - 1) {\n                        // leaf node must come last in proof\n                        revert();\n                    }\n\n                    if (mptKeyOffset < mptKey.length) {\n                        return new bytes(0);\n                    }\n\n                    rlpValue = node[1];\n                    return rlpValue.toBytes();\n                } else { // extension\n                    // Sanity check\n                    if (i == stack.length - 1) {\n                        // shouldn't be at last level\n                        revert();\n                    }\n\n                    if (!node[1].isList()) {\n                        // rlp(child) was at least 32 bytes. node[1] contains\n                        // Keccak256(rlp(child)).\n                        nodeHashHash = keccak256(node[1].toBytes());\n                    } else {\n                        // rlp(child) was at less than 32 bytes. node[1] contains\n                        // rlp(child).\n                        nodeHashHash = keccak256(node[1].toRlpBytes());\n                    }\n                }\n            } else if (node.length == 17) {\n                // Branch node\n\n                if (mptKeyOffset != mptKey.length) {\n                    // we haven't consumed the entire path, so we need to look at a child\n                    uint8 nibble = uint8(mptKey[mptKeyOffset]);\n                    mptKeyOffset += 1;\n                    if (nibble >= 16) {\n                        // each element of the path has to be a nibble\n                        revert();\n                    }\n\n                    if (isEmptyBytesequence(node[nibble])) {\n                        // Sanity\n                        if (i != stack.length - 1) {\n                            // leaf node should be at last level\n                            revert();\n                        }\n\n                        return new bytes(0);\n                    } else if (!node[nibble].isList()) {\n                        nodeHashHash = keccak256(node[nibble].toBytes());\n                    } else {\n                        nodeHashHash = keccak256(node[nibble].toRlpBytes());\n                    }\n                } else {\n                    // we have consumed the entire mptKey, so we need to look at what's contained in this node.\n\n                    // Sanity\n                    if (i != stack.length - 1) {\n                        // should be at last level\n                        revert();\n                    }\n\n                    return node[16].toBytes();\n                }\n            }\n        }\n    }\n}\n",
  "sourcePath": "/home/boris/Chicken_truffle_0p5/contracts/ProvethVerifier.sol",
  "compiler": {
    "name": "solc",
    "version": "0.5.8+commit.23d335f2.Emscripten.clang"
  },
  "schemaVersion": "3.0.11",
  "updatedAt": "2019-08-15T16:21:07.611Z",
  "devdoc": {
    "methods": {}
  },
  "userdoc": {
    "methods": {}
  }
}